{
  "abi": [
    {
      "type": "constructor",
      "inputs": [
        {
          "name": "priceFeedAddress",
          "type": "address",
          "internalType": "address"
        }
      ],
      "stateMutability": "nonpayable"
    },
    {
      "type": "function",
      "name": "I_OWBNER",
      "inputs": [],
      "outputs": [
        {
          "name": "",
          "type": "address",
          "internalType": "address"
        }
      ],
      "stateMutability": "view"
    },
    {
      "type": "function",
      "name": "MINI_USD",
      "inputs": [],
      "outputs": [
        {
          "name": "",
          "type": "uint256",
          "internalType": "uint256"
        }
      ],
      "stateMutability": "view"
    },
    {
      "type": "function",
      "name": "fund",
      "inputs": [],
      "outputs": [],
      "stateMutability": "payable"
    },
    {
      "type": "function",
      "name": "getAddressToAmountFunded",
      "inputs": [
        {
          "name": "fundingAddress",
          "type": "address",
          "internalType": "address"
        }
      ],
      "outputs": [
        {
          "name": "",
          "type": "uint256",
          "internalType": "uint256"
        }
      ],
      "stateMutability": "view"
    },
    {
      "type": "function",
      "name": "getFunder",
      "inputs": [
        {
          "name": "index",
          "type": "uint256",
          "internalType": "uint256"
        }
      ],
      "outputs": [
        {
          "name": "",
          "type": "address",
          "internalType": "address"
        }
      ],
      "stateMutability": "view"
    },
    {
      "type": "function",
      "name": "getOwner",
      "inputs": [],
      "outputs": [
        {
          "name": "",
          "type": "address",
          "internalType": "address"
        }
      ],
      "stateMutability": "view"
    },
    {
      "type": "function",
      "name": "getPriceFeed",
      "inputs": [],
      "outputs": [
        {
          "name": "",
          "type": "address",
          "internalType": "contract AggregatorV3Interface"
        }
      ],
      "stateMutability": "view"
    },
    {
      "type": "function",
      "name": "getVersion",
      "inputs": [],
      "outputs": [
        {
          "name": "",
          "type": "uint256",
          "internalType": "uint256"
        }
      ],
      "stateMutability": "view"
    },
    {
      "type": "function",
      "name": "paymentConsultationFee",
      "inputs": [],
      "outputs": [],
      "stateMutability": "payable"
    },
    {
      "type": "function",
      "name": "withdraw",
      "inputs": [],
      "outputs": [],
      "stateMutability": "nonpayable"
    }
  ],
  "bytecode": {
    "object": "0x60a060405234801561000f575f5ffd5b5060405161116a38038061116a83398181016040528101906100319190610109565b3373ffffffffffffffffffffffffffffffffffffffff1660808173ffffffffffffffffffffffffffffffffffffffff16815250508060025f6101000a81548173ffffffffffffffffffffffffffffffffffffffff021916908373ffffffffffffffffffffffffffffffffffffffff16021790555050610134565b5f5ffd5b5f73ffffffffffffffffffffffffffffffffffffffff82169050919050565b5f6100d8826100af565b9050919050565b6100e8816100ce565b81146100f2575f5ffd5b50565b5f81519050610103816100df565b92915050565b5f6020828403121561011e5761011d6100ab565b5b5f61012b848285016100f5565b91505092915050565b60805161101061015a5f395f81816104a20152818161080a015261082e01526110105ff3fe608060405260043610610090575f3560e01c80639e87a5cd116100585780639e87a5cd14610164578063b4cb03521461018e578063b60d428814610198578063d7b4750c146101a2578063f7cc3581146101de57610090565b80630343fb25146100945780630d8e6e2c146100d05780633ccfd60b146100fa5780636bb3da7a14610110578063893d20e81461013a575b5f5ffd5b34801561009f575f5ffd5b506100ba60048036038101906100b59190610a84565b610208565b6040516100c79190610ac7565b60405180910390f35b3480156100db575f5ffd5b506100e461024e565b6040516100f19190610ac7565b60405180910390f35b348015610105575f5ffd5b5061010e6102e2565b005b34801561011b575f5ffd5b50610124610493565b6040516101319190610ac7565b60405180910390f35b348015610145575f5ffd5b5061014e61049f565b60405161015b9190610aef565b60405180910390f35b34801561016f575f5ffd5b506101786104c6565b6040516101859190610b63565b60405180910390f35b6101966104ee565b005b6101a0610693565b005b3480156101ad575f5ffd5b506101c860048036038101906101c39190610ba6565b6107c5565b6040516101d59190610aef565b60405180910390f35b3480156101e9575f5ffd5b506101f2610808565b6040516101ff9190610aef565b60405180910390f35b5f60015f8373ffffffffffffffffffffffffffffffffffffffff1673ffffffffffffffffffffffffffffffffffffffff1681526020019081526020015f20549050919050565b5f60025f9054906101000a900473ffffffffffffffffffffffffffffffffffffffff1673ffffffffffffffffffffffffffffffffffffffff166354fd4d506040518163ffffffff1660e01b8152600401602060405180830381865afa1580156102b9573d5f5f3e3d5ffd5b505050506040513d601f19601f820116820180604052508101906102dd9190610be5565b905090565b6102ea61082c565b5f5f90505b5f80549050811015610389575f5f828154811061030f5761030e610c10565b5b905f5260205f20015f9054906101000a900473ffffffffffffffffffffffffffffffffffffffff1690505f60015f8373ffffffffffffffffffffffffffffffffffffffff1673ffffffffffffffffffffffffffffffffffffffff1681526020019081526020015f20819055505080806001019150506102ef565b505f67ffffffffffffffff8111156103a4576103a3610c3d565b5b6040519080825280602002602001820160405280156103d25781602001602082028036833780820191505090505b505f90805190602001906103e7929190610984565b505f3373ffffffffffffffffffffffffffffffffffffffff164760405161040d90610c97565b5f6040518083038185875af1925050503d805f8114610447576040519150601f19603f3d011682016040523d82523d5f602084013e61044c565b606091505b5050905080610490576040517f08c379a000000000000000000000000000000000000000000000000000000000815260040161048790610d05565b60405180910390fd5b50565b67016345785d8a000081565b5f7f0000000000000000000000000000000000000000000000000000000000000000905090565b5f60025f9054906101000a900473ffffffffffffffffffffffffffffffffffffffff16905090565b5f60025f9054906101000a900473ffffffffffffffffffffffffffffffffffffffff1673ffffffffffffffffffffffffffffffffffffffff1663feaf968c6040518163ffffffff1660e01b815260040160a060405180830381865afa158015610559573d5f5f3e3d5ffd5b505050506040513d601f19601f8201168201806040525081019061057d9190610d95565b5050509150505f8167016345785d8a00006105989190610e66565b9050803410156105dd576040517f08c379a00000000000000000000000000000000000000000000000000000000081526004016105d490610ee0565b60405180910390fd5b5f33908060018154018082558091505060019003905f5260205f20015f9091909190916101000a81548173ffffffffffffffffffffffffffffffffffffffff021916908373ffffffffffffffffffffffffffffffffffffffff1602179055503460015f3373ffffffffffffffffffffffffffffffffffffffff1673ffffffffffffffffffffffffffffffffffffffff1681526020019081526020015f205f8282546106889190610efe565b925050819055505050565b67016345785d8a00006106d060025f9054906101000a900473ffffffffffffffffffffffffffffffffffffffff16346108bc90919063ffffffff16565b1015610711576040517f08c379a000000000000000000000000000000000000000000000000000000000815260040161070890610ee0565b60405180910390fd5b5f33908060018154018082558091505060019003905f5260205f20015f9091909190916101000a81548173ffffffffffffffffffffffffffffffffffffffff021916908373ffffffffffffffffffffffffffffffffffffffff1602179055503460015f3373ffffffffffffffffffffffffffffffffffffffff1673ffffffffffffffffffffffffffffffffffffffff1681526020019081526020015f205f8282546107bc9190610efe565b92505081905550565b5f5f82815481106107d9576107d8610c10565b5b905f5260205f20015f9054906101000a900473ffffffffffffffffffffffffffffffffffffffff169050919050565b7f000000000000000000000000000000000000000000000000000000000000000081565b7f000000000000000000000000000000000000000000000000000000000000000073ffffffffffffffffffffffffffffffffffffffff163373ffffffffffffffffffffffffffffffffffffffff16146108ba576040517f08c379a00000000000000000000000000000000000000000000000000000000081526004016108b190610f7b565b60405180910390fd5b565b5f5f6108c7836108f6565b90505f670de0b6b3a764000085836108df9190610f99565b6108e99190610e66565b9050809250505092915050565b5f5f8273ffffffffffffffffffffffffffffffffffffffff1663feaf968c6040518163ffffffff1660e01b815260040160a060405180830381865afa158015610941573d5f5f3e3d5ffd5b505050506040513d601f19601f820116820180604052508101906109659190610d95565b5050509150506402540be4008161097c9190610f99565b915050919050565b828054828255905f5260205f209081019282156109fa579160200282015b828111156109f9578251825f6101000a81548173ffffffffffffffffffffffffffffffffffffffff021916908373ffffffffffffffffffffffffffffffffffffffff160217905550916020019190600101906109a2565b5b509050610a079190610a0b565b5090565b5b80821115610a22575f815f905550600101610a0c565b5090565b5f5ffd5b5f73ffffffffffffffffffffffffffffffffffffffff82169050919050565b5f610a5382610a2a565b9050919050565b610a6381610a49565b8114610a6d575f5ffd5b50565b5f81359050610a7e81610a5a565b92915050565b5f60208284031215610a9957610a98610a26565b5b5f610aa684828501610a70565b91505092915050565b5f819050919050565b610ac181610aaf565b82525050565b5f602082019050610ada5f830184610ab8565b92915050565b610ae981610a49565b82525050565b5f602082019050610b025f830184610ae0565b92915050565b5f819050919050565b5f610b2b610b26610b2184610a2a565b610b08565b610a2a565b9050919050565b5f610b3c82610b11565b9050919050565b5f610b4d82610b32565b9050919050565b610b5d81610b43565b82525050565b5f602082019050610b765f830184610b54565b92915050565b610b8581610aaf565b8114610b8f575f5ffd5b50565b5f81359050610ba081610b7c565b92915050565b5f60208284031215610bbb57610bba610a26565b5b5f610bc884828501610b92565b91505092915050565b5f81519050610bdf81610b7c565b92915050565b5f60208284031215610bfa57610bf9610a26565b5b5f610c0784828501610bd1565b91505092915050565b7f4e487b71000000000000000000000000000000000000000000000000000000005f52603260045260245ffd5b7f4e487b71000000000000000000000000000000000000000000000000000000005f52604160045260245ffd5b5f81905092915050565b50565b5f610c825f83610c6a565b9150610c8d82610c74565b5f82019050919050565b5f610ca182610c77565b9150819050919050565b5f82825260208201905092915050565b7f43616c6c204661696c65642021212100000000000000000000000000000000005f82015250565b5f610cef600f83610cab565b9150610cfa82610cbb565b602082019050919050565b5f6020820190508181035f830152610d1c81610ce3565b9050919050565b5f69ffffffffffffffffffff82169050919050565b610d4181610d23565b8114610d4b575f5ffd5b50565b5f81519050610d5c81610d38565b92915050565b5f819050919050565b610d7481610d62565b8114610d7e575f5ffd5b50565b5f81519050610d8f81610d6b565b92915050565b5f5f5f5f5f60a08688031215610dae57610dad610a26565b5b5f610dbb88828901610d4e565b9550506020610dcc88828901610d81565b9450506040610ddd88828901610bd1565b9350506060610dee88828901610bd1565b9250506080610dff88828901610d4e565b9150509295509295909350565b7f4e487b71000000000000000000000000000000000000000000000000000000005f52601260045260245ffd5b7f4e487b71000000000000000000000000000000000000000000000000000000005f52601160045260245ffd5b5f610e7082610aaf565b9150610e7b83610aaf565b925082610e8b57610e8a610e0c565b5b828204905092915050565b7f6469646e27742073656e6420656e6f75676820455448000000000000000000005f82015250565b5f610eca601683610cab565b9150610ed582610e96565b602082019050919050565b5f6020820190508181035f830152610ef781610ebe565b9050919050565b5f610f0882610aaf565b9150610f1383610aaf565b9250828201905080821115610f2b57610f2a610e39565b5b92915050565b7f4d757374206265204f776e6572202121000000000000000000000000000000005f82015250565b5f610f65601083610cab565b9150610f7082610f31565b602082019050919050565b5f6020820190508181035f830152610f9281610f59565b9050919050565b5f610fa382610aaf565b9150610fae83610aaf565b9250828202610fbc81610aaf565b91508282048414831517610fd357610fd2610e39565b5b509291505056fea26469706673582212204ba1f6e3b10892aade3e4432d1a838b0de4d732f406e1489c0ca24d3aada38c364736f6c634300081e0033",
    "linkReferences": {}
  },
  "methodIdentifiers": {
    "I_OWBNER()": "f7cc3581",
    "MINI_USD()": "6bb3da7a",
    "fund()": "b60d4288",
    "getAddressToAmountFunded(address)": "0343fb25",
    "getFunder(uint256)": "d7b4750c",
    "getOwner()": "893d20e8",
    "getPriceFeed()": "9e87a5cd",
    "getVersion()": "0d8e6e2c",
    "paymentConsultationFee()": "b4cb0352",
    "withdraw()": "3ccfd60b"
  },
  "id": 1
}